{
  "contractName": "BasicLoan",
  "abi": [
    {
      "inputs": [
        {
          "components": [
            {
              "internalType": "uint256",
              "name": "loanDaiAmount",
              "type": "uint256"
            },
            {
              "internalType": "uint256",
              "name": "feeDaiAmount",
              "type": "uint256"
            },
            {
              "internalType": "uint256",
              "name": "ethCollateralAmount",
              "type": "uint256"
            },
            {
              "internalType": "uint256",
              "name": "repayByTimestamp",
              "type": "uint256"
            }
          ],
          "internalType": "struct BasicLoan.Terms",
          "name": "_terms",
          "type": "tuple"
        },
        {
          "internalType": "address",
          "name": "_daiAddress",
          "type": "address"
        }
      ],
      "payable": false,
      "stateMutability": "nonpayable",
      "type": "constructor"
    },
    {
      "constant": true,
      "inputs": [],
      "name": "borrower",
      "outputs": [
        {
          "internalType": "address payable",
          "name": "",
          "type": "address"
        }
      ],
      "payable": false,
      "stateMutability": "view",
      "type": "function"
    },
    {
      "constant": true,
      "inputs": [],
      "name": "daiAddress",
      "outputs": [
        {
          "internalType": "address",
          "name": "",
          "type": "address"
        }
      ],
      "payable": false,
      "stateMutability": "view",
      "type": "function"
    },
    {
      "constant": true,
      "inputs": [],
      "name": "lender",
      "outputs": [
        {
          "internalType": "address payable",
          "name": "",
          "type": "address"
        }
      ],
      "payable": false,
      "stateMutability": "view",
      "type": "function"
    },
    {
      "constant": true,
      "inputs": [],
      "name": "state",
      "outputs": [
        {
          "internalType": "enum BasicLoan.LoanState",
          "name": "",
          "type": "uint8"
        }
      ],
      "payable": false,
      "stateMutability": "view",
      "type": "function"
    },
    {
      "constant": true,
      "inputs": [],
      "name": "terms",
      "outputs": [
        {
          "internalType": "uint256",
          "name": "loanDaiAmount",
          "type": "uint256"
        },
        {
          "internalType": "uint256",
          "name": "feeDaiAmount",
          "type": "uint256"
        },
        {
          "internalType": "uint256",
          "name": "ethCollateralAmount",
          "type": "uint256"
        },
        {
          "internalType": "uint256",
          "name": "repayByTimestamp",
          "type": "uint256"
        }
      ],
      "payable": false,
      "stateMutability": "view",
      "type": "function"
    },
    {
      "constant": false,
      "inputs": [],
      "name": "fundLoan",
      "outputs": [],
      "payable": false,
      "stateMutability": "nonpayable",
      "type": "function"
    },
    {
      "constant": false,
      "inputs": [],
      "name": "takeALoanAndAcceptLoanTerms",
      "outputs": [],
      "payable": true,
      "stateMutability": "payable",
      "type": "function"
    },
    {
      "constant": false,
      "inputs": [],
      "name": "repay",
      "outputs": [],
      "payable": false,
      "stateMutability": "nonpayable",
      "type": "function"
    },
    {
      "constant": false,
      "inputs": [],
      "name": "liquidate",
      "outputs": [],
      "payable": false,
      "stateMutability": "nonpayable",
      "type": "function"
    }
  ],
  "bytecode": "0x60806040523480156200001157600080fd5b5060405162001122380380620011228339818101604052620000379190810190620001c0565b81600080820151816000015560208201518160010155604082015181600201556060820151816003015590505080600660006101000a81548173ffffffffffffffffffffffffffffffffffffffff021916908373ffffffffffffffffffffffffffffffffffffffff16021790555033600460016101000a81548173ffffffffffffffffffffffffffffffffffffffff021916908373ffffffffffffffffffffffffffffffffffffffff1602179055506000600460006101000a81548160ff021916908360028111156200010657fe5b02179055505050620002a1565b60008151905062000124816200026d565b92915050565b6000608082840312156200013d57600080fd5b62000149608062000201565b905060006200015b84828501620001a9565b60008301525060206200017184828501620001a9565b60208301525060406200018784828501620001a9565b60408301525060606200019d84828501620001a9565b60608301525092915050565b600081519050620001ba8162000287565b92915050565b60008060a08385031215620001d457600080fd5b6000620001e4858286016200012a565b9250506080620001f78582860162000113565b9150509250929050565b6000604051905081810181811067ffffffffffffffff821117156200022557600080fd5b8060405250919050565b60006200023c8262000243565b9050919050565b600073ffffffffffffffffffffffffffffffffffffffff82169050919050565b6000819050919050565b62000278816200022f565b81146200028457600080fd5b50565b620002928162000263565b81146200029e57600080fd5b50565b610e7180620002b16000396000f3fe6080604052600436106100865760003560e01c80637df1f1b9116100595780637df1f1b9146100ee5780638db5799414610119578063bcead63e14610130578063c19d93fb1461015b578063d50256251461018657610086565b806328a070251461008b5780632c387275146100a2578063402d8883146100cd5780634c4b28f6146100e4575b600080fd5b34801561009757600080fd5b506100a06101b4565b005b3480156100ae57600080fd5b506100b7610330565b6040516100c49190610b77565b60405180910390f35b3480156100d957600080fd5b506100e2610356565b005b6100ec61058b565b005b3480156100fa57600080fd5b50610103610779565b6040516101109190610b92565b60405180910390f35b34801561012557600080fd5b5061012e61079f565b005b34801561013c57600080fd5b506101456108e5565b6040516101529190610b92565b60405180910390f35b34801561016757600080fd5b5061017061090b565b60405161017d9190610c44565b60405180910390f35b34801561019257600080fd5b5061019b61091e565b6040516101ab9493929190610cff565b60405180910390f35b60028060028111156101c257fe5b600460009054906101000a900460ff1660028111156101dd57fe5b1461021d576040517f08c379a000000000000000000000000000000000000000000000000000000000815260040161021490610cdf565b60405180910390fd5b600460019054906101000a900473ffffffffffffffffffffffffffffffffffffffff1673ffffffffffffffffffffffffffffffffffffffff163373ffffffffffffffffffffffffffffffffffffffff16146102ad576040517f08c379a00000000000000000000000000000000000000000000000000000000081526004016102a490610c9f565b60405180910390fd5b6000600301544210156102f5576040517f08c379a00000000000000000000000000000000000000000000000000000000081526004016102ec90610cbf565b60405180910390fd5b600460019054906101000a900473ffffffffffffffffffffffffffffffffffffffff1673ffffffffffffffffffffffffffffffffffffffff16ff5b600660009054906101000a900473ffffffffffffffffffffffffffffffffffffffff1681565b600280600281111561036457fe5b600460009054906101000a900460ff16600281111561037f57fe5b146103bf576040517f08c379a00000000000000000000000000000000000000000000000000000000081526004016103b690610cdf565b60405180910390fd5b600560009054906101000a900473ffffffffffffffffffffffffffffffffffffffff1673ffffffffffffffffffffffffffffffffffffffff163373ffffffffffffffffffffffffffffffffffffffff161461044f576040517f08c379a000000000000000000000000000000000000000000000000000000000815260040161044690610c5f565b60405180910390fd5b600660009054906101000a900473ffffffffffffffffffffffffffffffffffffffff1673ffffffffffffffffffffffffffffffffffffffff166323b872dd600560009054906101000a900473ffffffffffffffffffffffffffffffffffffffff16600460019054906101000a900473ffffffffffffffffffffffffffffffffffffffff166000600101546000800154016040518463ffffffff1660e01b81526004016104fd93929190610bad565b602060405180830381600087803b15801561051757600080fd5b505af115801561052b573d6000803e3d6000fd5b505050506040513d601f19601f8201168201806040525061054f9190810190610951565b50600560009054906101000a900473ffffffffffffffffffffffffffffffffffffffff1673ffffffffffffffffffffffffffffffffffffffff16ff5b600180600281111561059957fe5b600460009054906101000a900460ff1660028111156105b457fe5b146105f4576040517f08c379a00000000000000000000000000000000000000000000000000000000081526004016105eb90610cdf565b60405180910390fd5b600060020154341461063b576040517f08c379a000000000000000000000000000000000000000000000000000000000815260040161063290610c7f565b60405180910390fd5b33600560006101000a81548173ffffffffffffffffffffffffffffffffffffffff021916908373ffffffffffffffffffffffffffffffffffffffff1602179055506002600460006101000a81548160ff0219169083600281111561069b57fe5b0217905550600660009054906101000a900473ffffffffffffffffffffffffffffffffffffffff1673ffffffffffffffffffffffffffffffffffffffff1663a9059cbb600560009054906101000a900473ffffffffffffffffffffffffffffffffffffffff1660008001546040518363ffffffff1660e01b8152600401610723929190610c1b565b602060405180830381600087803b15801561073d57600080fd5b505af1158015610751573d6000803e3d6000fd5b505050506040513d601f19601f820116820180604052506107759190810190610951565b5050565b600560009054906101000a900473ffffffffffffffffffffffffffffffffffffffff1681565b60008060028111156107ad57fe5b600460009054906101000a900460ff1660028111156107c857fe5b14610808576040517f08c379a00000000000000000000000000000000000000000000000000000000081526004016107ff90610cdf565b60405180910390fd5b6001600460006101000a81548160ff0219169083600281111561082757fe5b0217905550600660009054906101000a900473ffffffffffffffffffffffffffffffffffffffff1673ffffffffffffffffffffffffffffffffffffffff166323b872dd333060008001546040518463ffffffff1660e01b815260040161088f93929190610be4565b602060405180830381600087803b1580156108a957600080fd5b505af11580156108bd573d6000803e3d6000fd5b505050506040513d601f19601f820116820180604052506108e19190810190610951565b5050565b600460019054906101000a900473ffffffffffffffffffffffffffffffffffffffff1681565b600460009054906101000a900460ff1681565b60008060000154908060010154908060020154908060030154905084565b60008151905061094b81610e17565b92915050565b60006020828403121561096357600080fd5b60006109718482850161093c565b91505092915050565b61098381610dc2565b82525050565b61099281610d67565b82525050565b6109a181610d55565b82525050565b6109b081610dd4565b82525050565b60006109c3602483610d44565b91507f4f6e6c792074686520626f72726f7765722063616e207265706179207468652060008301527f6c6f616e000000000000000000000000000000000000000000000000000000006020830152604082019050919050565b6000610a29601983610d44565b91507f496e76616c696420636f6c6c61746572616c20616d6f756e74000000000000006000830152602082019050919050565b6000610a69602683610d44565b91507f4f6e6c7920746865206c656e6465722063616e206c697175696461746520746860008301527f65206c6f616e00000000000000000000000000000000000000000000000000006020830152604082019050919050565b6000610acf602883610d44565b91507f43616e206e6f74206c6971756964617465206265666f726520746865206c6f6160008301527f6e206973206475650000000000000000000000000000000000000000000000006020830152604082019050919050565b6000610b35601983610d44565b91507f4e6f7420616c6c6f77656420696e2074686973207374617465000000000000006000830152602082019050919050565b610b7181610db8565b82525050565b6000602082019050610b8c6000830184610998565b92915050565b6000602082019050610ba76000830184610989565b92915050565b6000606082019050610bc2600083018661097a565b610bcf602083018561097a565b610bdc6040830184610b68565b949350505050565b6000606082019050610bf9600083018661097a565b610c066020830185610998565b610c136040830184610b68565b949350505050565b6000604082019050610c30600083018561097a565b610c3d6020830184610b68565b9392505050565b6000602082019050610c5960008301846109a7565b92915050565b60006020820190508181036000830152610c78816109b6565b9050919050565b60006020820190508181036000830152610c9881610a1c565b9050919050565b60006020820190508181036000830152610cb881610a5c565b9050919050565b60006020820190508181036000830152610cd881610ac2565b9050919050565b60006020820190508181036000830152610cf881610b28565b9050919050565b6000608082019050610d146000830187610b68565b610d216020830186610b68565b610d2e6040830185610b68565b610d3b6060830184610b68565b95945050505050565b600082825260208201905092915050565b6000610d6082610d98565b9050919050565b6000610d7282610d98565b9050919050565b60008115159050919050565b6000819050610d9382610e0a565b919050565b600073ffffffffffffffffffffffffffffffffffffffff82169050919050565b6000819050919050565b6000610dcd82610de6565b9050919050565b6000610ddf82610d85565b9050919050565b6000610df182610df8565b9050919050565b6000610e0382610d98565b9050919050565b60038110610e1457fe5b50565b610e2081610d79565b8114610e2b57600080fd5b5056fea365627a7a72315820c292db51260e83e0b346eda597728e98a11a4eee5deeee4379be456d382aee3c6c6578706572696d656e74616cf564736f6c63430005100040",
  "source": "pragma experimental ABIEncoderV2;\r\npragma solidity ^0.5.0;\r\n\r\nimport {DaiToken} from \"./DaiToken.sol\";\r\n\r\n/*\r\n Basic debt contract allows to borrow DaiToken for a fixed period of time using ETH as a collateral.\r\n Fee is constant and predefined. In case of the lack of payment - the whole collateral\r\n will be liquidated and transfered to the lender.\r\n*/\r\ncontract BasicLoan {\r\n    struct Terms {\r\n        // The amount of mDAI to be loaned\r\n        uint256 loanDaiAmount;\r\n        // The amount of mDAI to be repayed on top of the loan amount as a fee\r\n        uint256 feeDaiAmount;\r\n        // The amount of the colateral in ETH. Should be more valuable then the loanDaiAmount + feeDaiAmount at any time during the loan\r\n        // Otherwise - the borrower has an incentive to default on the loan\r\n        uint256 ethCollateralAmount;\r\n        // The timestamp by which the loan should be repayed. After it - the lender can liquidate the collateral\r\n        uint256 repayByTimestamp;\r\n    }\r\n    Terms public terms;\r\n\r\n    // The loan can be in 5 states. Created, Funded, Taken, Repayed, Liquidated\r\n    // Here we define only two because in the latter two - the contract will be destroyed\r\n    enum LoanState {Created, Funded, Taken}\r\n    LoanState public state;\r\n\r\n    address payable public lender;\r\n    address payable public borrower;\r\n    address public daiAddress;\r\n\r\n    constructor(Terms memory _terms, address _daiAddress) public {\r\n        terms = _terms;\r\n        daiAddress = _daiAddress;\r\n        lender = msg.sender;\r\n        state = LoanState.Created;\r\n    }\r\n\r\n    // Modifier that prevents some functions to be callen in any other state than the provided one.\r\n    modifier onlyInState(LoanState expectedState) {\r\n        require(state == expectedState, \"Not allowed in this state\");\r\n        _;\r\n    }\r\n\r\n    function fundLoan() public onlyInState(LoanState.Created) {\r\n        // Transfer DaiToken from the lender to the contract so that we can later transfer it to the borrower as a loan\r\n        // This required the lender to allow us to do so beforehand and will fail otherwise\r\n        state = LoanState.Funded;\r\n        DaiToken(daiAddress).transferFrom(msg.sender, address(this), terms.loanDaiAmount);\r\n    }\r\n\r\n    // Function to take the loan\r\n    function takeALoanAndAcceptLoanTerms()\r\n        /* Collateral should be transfered when calling this function */\r\n        /* Prevents the loan from being taken twice */\r\n        public\r\n        payable\r\n        onlyInState(LoanState.Funded)\r\n    {\r\n        // Check that the exact amount of the collateral is transfered. It will be kept in the contract till the loan is repayed or liquidated\r\n        require(msg.value == terms.ethCollateralAmount, \"Invalid collateral amount\");\r\n        // Record the borrower address so that only he/she/it can repay the loan and unlock the collateral\r\n        borrower = msg.sender;\r\n        state = LoanState.Taken;\r\n        // Transfer the actual tokens that are being loaned\r\n        DaiToken(daiAddress).transfer(borrower, terms.loanDaiAmount);\r\n    }\r\n\r\n    // Function to repay the loan. It can be repayed early with no fees. Borrower should allow this contract to pull the tokens before calling this.\r\n    function repay() public onlyInState(LoanState.Taken) {\r\n        // Allowing anyone to repay would allow anyone to unlock the collateral\r\n        require(msg.sender == borrower, \"Only the borrower can repay the loan\");\r\n        // Pull the tokens. Both the initial amount and the fee. If there is not enough - it will fail.\r\n        DaiToken(daiAddress).transferFrom(borrower, lender, terms.loanDaiAmount + terms.feeDaiAmount);\r\n        // Send the collateral back to the borrower and destroy the contract\r\n        selfdestruct(borrower);\r\n    }\r\n\r\n    // This function is to be called by the lender in case the loan is not repayed on time.\r\n    // It will transfer the whole collateral to the lender. The collateral is expected to be\r\n    // more valuable than the loan so that the lender doesn't loose any money in this case.\r\n    function liquidate() public onlyInState(LoanState.Taken) {\r\n        require(msg.sender == lender, \"Only the lender can liquidate the loan\");\r\n        require(block.timestamp >= terms.repayByTimestamp, \"Can not liquidate before the loan is due\");\r\n        // Send the collateral to the lender and destroy the contract\r\n        selfdestruct(lender);\r\n    }\r\n}",
  "sourcePath": "D:\\coding\\defi_app\\src\\contracts\\Loan.sol",
  "compiler": {
    "name": "solc",
    "version": "0.5.16+commit.9c3226ce.Emscripten.clang"
  },
  "schemaVersion": "3.4.3",
  "updatedAt": "2021-11-14T05:27:44.786Z",
  "devdoc": {
    "methods": {}
  },
  "userdoc": {
    "methods": {}
  }
}